:020000040800F2
:10000000005000202D0600087D0600087D0600082F
:100010007D0600087D0600087D060008000000003F
:100020000000000000000000000000007D06000845
:100030007D060008000000007D0600087D0600081F
:100040007D0600087D0600087D0600087D06000884
:100050007D0600087D0600087D0600087D06000874
:100060007D0600087D0600087D0600087D06000864
:100070007D0600087D0600087D0600087D06000854
:100080007D0600087D0600087D0600087D06000844
:100090007D0600087D0600087D0600087D06000834
:1000A0007D0600087D0600087D0600087D06000824
:1000B0007D0600087D0600087D0600087D06000814
:1000C0007D0600087D0600087D0600087D06000804
:1000D0007D0600087D0600087D0600087D060008F4
:1000E0007D0600087D060008000000007D0600086F
:1000F0007D0600087D0600087D0600087D060008D4
:100100007D0600087D0600087D0600087D060008C3
:100110007D0600087D0600087D0600087D060008B3
:100120007D0600087D0600087D0600087D060008A3
:1001300010B5054C237833B9044B13B10448AFF321
:1001400000800123237010BD00000020000000008B
:10015000C806000808B5034B1BB103490348AFF3B9
:10016000008008BD0000000004000020C806000850
:1001700080B58AB00AAF00F053FA0723089306232C
:100180000793052306930423059303230493022373
:10019000039301230293002301931F4B0093092330
:1001A0001D4A08211C4800F039F800F06FF80120C2
:1001B00000F07EF9022000F01BFA802000F078F9B0
:1001C000532000F0B5F9482000F0B2F9592000F0B2
:1001D000AFF9412000F0ACF94D2000F0A9F9C020A2
:1001E00000F066F9532000F0A3F9552000F0A0F9C3
:1001F0004E2000F09DF9442000F09AF9452000F0CF
:1002000097F9522000F094F92E2000F091F9522035
:1002100000F08EF900BFFDE70008014080B485B012
:1002200000AFF8607A601A460B467B8113463B812B
:10023000154AFB681360144A7B899380124A7B68D5
:100240009360114A3B8993810F4ABB6913610E4A3F
:10025000BB8B93820C4A3B8CD3820B4ABB8C13839F
:10026000094A3B8D5383084ABB8D9383064A3B8ED4
:10027000D383054ABB8E1384034A3B8F538400BF4C
:100280001437BD4680BC70471C00002080B582B08A
:1002900000AF854B9B69844A43F00C039361834B09
:1002A0009B88072B1DD8814B1B681A687F4B9B8846
:1002B0009B000F2101FA03F3DB4319467B4B1B68BC
:1002C0000A401A60794B1B681A68784B9B889B0020
:1002D000022101FA03F31946744B1B680A431A60A2
:1002E0001EE0724B1B685A68704B9B88083B9B0052
:1002F0000F2101FA03F3DB4319466C4B1B680A40DC
:100300005A606A4B1B685A68684B9B88083B9B0085
:10031000022101FA03F31946644B1B680A435A6031
:10032000624B9B89072B1DD8604B9B681A685F4BFB
:100330009B899B000F2101FA03F3DB4319465B4BBA
:100340009B680A401A60594B9B681A68574B9B89F7
:100350009B00022101FA03F31946544B9B680A43A0
:100360001A601EE0514B9B685A68504B9B89083BB2
:100370009B000F2101FA03F3DB4319464B4B9B68AB
:100380000A405A60494B9B685A68484B9B89083B16
:100390009B00022101FA03F31946444B9B680A4370
:1003A0005A6000237B6057E0404A7B6808335B005B
:1003B00013449B88072B25D83C4B1B691A683B4983
:1003C0007B6808335B000B449B889B000F2101FA7C
:1003D00003F3DB431946354B1B690A401A60334B64
:1003E0001B691A6831497B6808335B000B449B88A2
:1003F0009B00022101FA03F319462C4B1B690A43A7
:100400001A6026E0294B1B695A6828497B68083323
:100410005B000B449B88083B9B000F2101FA03F310
:10042000DB431946214B1B690A405A601F4B1B696D
:100430005A681E497B6808335B000B449B88083B65
:100440009B00022101FA03F31946184B1B690A436A
:100450005A607B6801337B607B68072BA4DD282012
:1004600000F0C6F8302000F023F8052000F0C0F8B6
:10047000302000F01DF8012000F0BAF8302000F024
:1004800017F8382000F014F80C2000F011F80120C3
:1004900000F00EF8022000F0ABF8062000F008F89B
:1004A00000BF0837BD4680BD001002401C00002080
:1004B00080B584B000AF0346FB711C4B9B881033A2
:1004C00001229A40194B1B681A610023FB6024E04B
:1004D000FA79FB6842FA03F303F00103002B0DD015
:1004E000124AFB6808335B0013449B881A460123B9
:1004F00003FA02F20D4B1B691A610BE00B4AFB6811
:1005000008335B0013449B88103301229A40074B49
:100510001B691A61FB680133FB60FB68072BD7DDA1
:1005200000F048F800BF1037BD4680BD1C00002019
:1005300080B584B000AF0346FB711D4B9B881A4603
:10054000012303FA02F21A4B1B681A610023FB60B5
:1005500024E0FA79FB6842FA03F303F00103002B6D
:100560000DD0134AFB6808335B0013449B881A467E
:10057000012303FA02F20E4B1B691A610BE00C4ACD
:10058000FB6808335B0013449B88103301229A40B8
:10059000074B1B691A61FB680133FB60FB68072B83
:1005A000D7DD00F007F800BF1037BD4680BD00BFA3
:1005B0001C00002080B500AF0C4B9B891A4601231C
:1005C00003FA02F2094B9B681A61012000F010F84F
:1005D000064B9B89103301229A40044B9B681A6199
:1005E000012000F005F800BF80BD00BF1C00002006
:1005F00080B485B000AF78600023FB6002E0FB6848
:100600000133FB607B684FF4FA5202FB03F3FA6894
:100610009A42F4D300BF00BF1437BD4680BC704778
:1006200080B400AF00BFBD4680BC70470D48854612
:10063000FFF7F6FF0C480D490D4A002302E0D4589D
:10064000C4500433C4188C42F9D30A4A0A4C00231C
:1006500001E013600432A242FBD300F011F8FFF76F
:1006600087FDFEE700500020000000200000002071
:10067000E80600080000002040000020FEE700001F
:1006800070B500260C4D0D4C641BA410A64209D178
:1006900000F01AF800260A4D0A4C641BA410A6426A
:1006A00005D170BD55F8043B98470136EEE755F883
:1006B000043B98470136F2E7E0060008E006000830
:1006C000E0060008E4060008F8B500BFF8BC08BC66
:1006D0009E467047F8B500BFF8BC08BC9E46704700
:0406E00055010008B8
:0406E40031010008D8
:040000050800062DBC
:00000001FF
