:020000040800F2
:1000000000500020FD0200084D0300084D030008C9
:100010004D0300084D0300084D03000800000000D8
:100020000000000000000000000000004D03000878
:100030004D030008000000004D0300084D030008B8
:100040004D0300084D0300084D0300084D03000850
:100050004D0300084D0300084D0300084D03000840
:100060004D0300084D0300084D0300084D03000830
:100070004D0300084D0300084D0300084D03000820
:100080004D0300084D0300084D0300084D03000810
:100090004D0300084D0300084D0300084D03000800
:1000A0004D0300084D0300084D0300084D030008F0
:1000B0004D0300084D0300084D0300084D030008E0
:1000C0004D0300084D0300084D0300084D030008D0
:1000D0004D0300084D0300084D0300084D030008C0
:1000E0004D0300084D030008000000004D03000808
:1000F0004D0300084D0300084D0300084D030008A0
:100100004D0300084D0300084D0300084D0300088F
:100110004D0300084D0300084D0300084D0300087F
:100120004D0300084D0300084D0300084D0300086F
:1001300010B5054C237833B9044B13B10448AFF321
:1001400000800123237010BD00000020000000008B
:100150009803000808B5034B1BB103490348AFF3EC
:10016000008008BD00000000040000209803000883
:1001700080B58CB000AF00F0BBF85A4B9B69594A70
:1001800043F004039361584B1B68574B4FF01132F7
:100190001A60554B5B6823F47F6323F00F03524AC8
:1001A00043F4887343F0010353604F4B01221A61FB
:1001B0000023FB6202E0FB6A0133FB62FB6A4CF244
:1001C00050329342F7DD484B02221A610023BB6292
:1001D00002E0BB6A0133BB62BB6A4CF2503293420D
:1001E000F7DD414B04221A6100237B6202E07B6A47
:1001F00001337B627B6A4CF250329342F7DD3A4B1B
:1002000008221A6100233B6202E03B6A01333B6231
:100210003B6A4CF250329342F7DD334B10221A61A5
:100220000023FB6102E0FB690133FB61FB694CF2D7
:1002300050329342F7DD2C4B20221A610023BB6120
:1002400002E0BB690133BB61BB694CF2503293429F
:10025000F7DD254B40221A6100237B6102E07B69B8
:1002600001337B617B694CF250329342F7DD1E4BC8
:1002700080221A6100233B6102E03B6901333B614C
:100280003B694CF250329342F7DD174B4FF48072CA
:100290001A610023FB6002E0FB680133FB60FB682E
:1002A0004CF250329342F7DD0F4B4FF400721A615B
:1002B0000023BB6002E0BB680133BB60BB684CF24B
:1002C00050329342F7DD084B084A1A6100237B60E5
:1002D00002E07B6801337B607B684CF250329342D2
:1002E000F7DD62E700100240000801400000FF0354
:1002F00080B400AF00BFBD4680BC70470D48854646
:10030000FFF7F6FF0C480D490D4A002302E0D458D0
:10031000C4500433C4188C42F9D30A4A0A4C00234F
:1003200001E013600432A242FBD300F011F8FFF7A2
:100330001FFFFEE70050002000000020000000200A
:10034000B8030008000000201C000020FEE70000A9
:1003500070B500260C4D0D4C641BA410A64209D1AB
:1003600000F01AF800260A4D0A4C641BA410A6429D
:1003700005D170BD55F8043B98470136EEE755F8B6
:10038000043B98470136F2E7B0030008B0030008C9
:10039000B0030008B4030008F8B500BFF8BC08BCFF
:1003A0009E467047F8B500BFF8BC08BC9E46704733
:0403B00055010008EB
:0403B400310100080B
:04000005080002FDF0
:00000001FF
