:020000040800F2
:1000000000500020D5020008250300082503000841
:100010002503000825030008250300080000000050
:1000200000000000000000000000000025030008A0
:100030002503000800000000250300082503000830
:1000400025030008250300082503000825030008F0
:1000500025030008250300082503000825030008E0
:1000600025030008250300082503000825030008D0
:1000700025030008250300082503000825030008C0
:1000800025030008250300082503000825030008B0
:1000900025030008250300082503000825030008A0
:1000A0002503000825030008250300082503000890
:1000B0002503000825030008250300082503000880
:1000C0002503000825030008250300082503000870
:1000D0002503000825030008250300082503000860
:1000E0002503000825030008000000002503000880
:1000F0002503000825030008250300082503000840
:10010000250300082503000825030008250300082F
:10011000250300082503000825030008250300081F
:10012000250300082503000825030008250300080F
:1001300010B5054C237833B9044B13B10448AFF321
:1001400000800123237010BD140000200000000077
:100150007003000808B5034B1BB103490348AFF314
:10016000008008BD00000000180000207003000897
:1001700080B582B000AF00F0A7F8244B9B69234AFA
:1001800043F004039361224B1B68214A03F0704340
:1001900013601F4B1A681E491E4B13430B601B4B09
:1001A0009B691A4A43F0080393611B4B1B681A4A68
:1001B00023F470631360184B1B68174A43F40863F9
:1001C00013600023FB8000F041F803467B717B79CC
:1001D00003F00103002B06D0FB88013BFB80FB886A
:1001E000184600F053F87B7903F00203002B07D088
:1001F000FB880133FB80FB88184600F047F8E2E7F4
:10020000FB88184600F042F8DDE700BF001002400E
:100210000008014022222202000C014080B485B077
:1002200000AF78600023FB6002E0FB680133FB60F5
:100230007B684FF4FA5202FB03F3FA689A42F4D354
:1002400000BF00BF1437BD4680BC704780B483B088
:1002500000AF0D4B9B685B08DBB203F00103FB7141
:10026000094B9B689B08DBB203F00103BB71FB7970
:100270005B005AB297F9063013435BB2DBB2184603
:100280000C37BD4680BC7047000C014080B582B081
:1002900000AF0346FB80FB88094A32F81320094B64
:1002A0001A610820FFF7BAFFFB88054A32F81330BD
:1002B000044A1B04136100BF0837BD4680BD00BF60
:1002C000000000200008014080B400AF00BFBD4620
:1002D00080BC70470D488546FFF7F6FF0C480D4976
:1002E0000D4A002302E0D458C4500433C4188C4291
:1002F000F9D30A4A0A4C002301E013600432A242F7
:10030000FBD300F011F8FFF733FFFEE700500020A9
:1003100000000020140000209003000814000020BA
:1003200030000020FEE7000070B500260C4D0D4C9B
:10033000641BA410A64209D100F01AF800260A4D49
:100340000A4C641BA410A64205D170BD55F8043BAD
:1003500098470136EEE755F8043B98470136F2E737
:100360008803000888030008880300088C0300083D
:10037000F8B500BFF8BC08BC9E467047F8B500BF92
:08038000F8BC08BC9E46704762
:040388005501000813
:04038C003101000833
:100390003F0006005B004F0066006D007D00070017
:0403A0007F006F006B
:04000005080002D518
:00000001FF
