:020000040800F2
:100000000050002059020008A9020008A9020008B7
:10001000A9020008A9020008A902000800000000C7
:10002000000000000000000000000000A90200081D
:10003000A902000800000000A9020008A9020008A7
:10004000A9020008A9020008A9020008A9020008E4
:10005000A9020008A9020008A9020008A9020008D4
:10006000A9020008A9020008A9020008A9020008C4
:10007000A9020008A9020008A9020008A9020008B4
:10008000A9020008A9020008A9020008A9020008A4
:10009000A9020008A9020008A9020008A902000894
:1000A000A9020008A9020008A9020008A902000884
:1000B000A9020008A9020008A9020008A902000874
:1000C000A9020008A9020008A9020008A902000864
:1000D000A9020008A9020008A9020008A902000854
:1000E000A9020008A902000800000000A9020008F7
:1000F000A9020008A9020008A9020008A902000834
:10010000A9020008A9020008A9020008A902000823
:10011000A9020008A9020008A9020008A902000813
:10012000A9020008A9020008A9020008A902000803
:1001300010B5054C237833B9044B13B10448AFF321
:1001400000800123237010BD00000020000000008B
:10015000F402000808B5034B1BB103490348AFF391
:10016000008008BD0000000004000020F402000828
:1001700080B582B000AF00F069F8234B9B69224A3A
:1001800043F004039361204B9B691F4A43F008032B
:1001900093611E4B1B681D4A23F00F0313601B4B1A
:1001A0001B681A4A43F002031360184B1B68174A76
:1001B00023F0F0031360154B1B68144A43F08003CF
:1001C0001360124B1B68114A23F4706313600F4BCA
:1001D0001B680E4A43F40063136000F019F80346ED
:1001E000FB71FB7903F00103002B03D0074B4FF4A5
:1001F00070221A61FB7903F00203002BEDD0034B50
:1002000001221A61E9E700BF001002400008014026
:1002100080B483B000AF0C4B9B685B0803F0010314
:100220007B60094B9B689B0803F001033B607B6884
:100230005B005AB23B685BB213435BB2DBB2184659
:100240000C37BD4680BC70470008014080B400AF49
:1002500000BFBD4680BC70470D488546FFF7F6FFDE
:100260000C480D490D4A002302E0D458C450043311
:10027000C4188C42F9D30A4A0A4C002301E01360E7
:100280000432A242FBD300F011F8FFF771FFFEE742
:10029000005000200000002000000020140300088F
:1002A000000000201C000020FEE7000070B50026C2
:1002B0000C4D0D4C641BA410A64209D100F01AF895
:1002C00000260A4D0A4C641BA410A64205D170BD3D
:1002D00055F8043B98470136EEE755F8043B98473C
:1002E0000136F2E70C0300080C0300080C030008B9
:1002F00010030008F8B500BFF8BC08BC9E46704764
:0C030000F8B500BFF8BC08BC9E46704772
:04030C00550100088F
:0403100031010008AF
:040000050800025994
:00000001FF
