:020000040800F2
:100000000050002015020008650200086502000883
:100010006502000865020008650200080000000093
:100020000000000000000000000000006502000861
:100030006502000800000000650200086502000873
:1000400065020008650200086502000865020008F4
:1000500065020008650200086502000865020008E4
:1000600065020008650200086502000865020008D4
:1000700065020008650200086502000865020008C4
:1000800065020008650200086502000865020008B4
:1000900065020008650200086502000865020008A4
:1000A0006502000865020008650200086502000894
:1000B0006502000865020008650200086502000884
:1000C0006502000865020008650200086502000874
:1000D0006502000865020008650200086502000864
:1000E00065020008650200080000000065020008C3
:1000F0006502000865020008650200086502000844
:100100006502000865020008650200086502000833
:100110006502000865020008650200086502000823
:100120006502000865020008650200086502000813
:1001300010B5054C237833B9044B13B10448AFF321
:1001400000800123237010BD00000020000000008B
:10015000B002000808B5034B1BB103490348AFF3D5
:10016000008008BD0000000004000020B00200086C
:1001700080B582B000AF022000F030F8032000F01C
:100180002DF8144B1B68134A43F010031360114BF6
:100190001B68104A23F0C00313600E4B06221A613D
:1001A00000237B6002E07B6801337B607B680A4A46
:1001B0009342F8DD074B4FF4C0221A6100233B60E5
:1001C00002E03B6801333B603B68034A9342F8DD41
:1001D000E3E700BF0008014020A1070080B483B01E
:1001E00000AF0346FB71074B9B69FA79012101FAC5
:1001F00002F21146034A0B43936100BF0C37BD4620
:1002000080BC70470010024080B400AF00BFBD4604
:1002100080BC70470D488546FFF7F6FF0C480D4936
:100220000D4A002302E0D458C4500433C4188C4251
:10023000F9D30A4A0A4C002301E013600432A242B7
:10024000FBD300F011F8FFF793FFFEE7005000200A
:100250000000002000000020D00200080000002064
:100260001C000020FEE7000070B500260C4D0D4C70
:10027000641BA410A64209D100F01AF800260A4D0A
:100280000A4C641BA410A64205D170BD55F8043B6E
:1002900098470136EEE755F8043B98470136F2E7F8
:1002A000C8020008C8020008C8020008CC02000802
:1002B000F8B500BFF8BC08BC9E467047F8B500BF53
:0802C000F8BC08BC9E46704723
:0402C80055010008D4
:0402CC0031010008F4
:0400000508000215D8
:00000001FF
