:020000040800F2
:10000000005000202102000871020008710200085F
:10001000710200087102000871020008000000006F
:100020000000000000000000000000007102000855
:10003000710200080000000071020008710200084F
:1000400071020008710200087102000871020008C4
:1000500071020008710200087102000871020008B4
:1000600071020008710200087102000871020008A4
:100070007102000871020008710200087102000894
:100080007102000871020008710200087102000884
:100090007102000871020008710200087102000874
:1000A0007102000871020008710200087102000864
:1000B0007102000871020008710200087102000854
:1000C0007102000871020008710200087102000844
:1000D0007102000871020008710200087102000834
:1000E000710200087102000800000000710200089F
:1000F0007102000871020008710200087102000814
:100100007102000871020008710200087102000803
:1001100071020008710200087102000871020008F3
:1001200071020008710200087102000871020008E3
:1001300010B5054C237833B9044B13B10448AFF321
:1001400000800123237010BD140000200000000077
:10015000BC02000808B5034B1BB103490348AFF3C9
:10016000008008BD0000000018000020BC0200084C
:1001700080B582B000AF00F04DF80E4B04229A61BA
:1001800000F022F800237B600FE00B4A7B6832F816
:1001900013300A4ADBB21361094800F027F8074B15
:1001A000084A1A617B6801337B607B68092BECDDB0
:1001B000E8E700BF001002400000002000080140F6
:1001C00090D003000000FFFF80B400AF054B1B6818
:1001D00003F070420349044B13430B6000BFBD465C
:1001E00080BC7047000801401111110180B485B036
:1001F00000AF78600023FB6002E0FB680133FB6026
:10020000FB687A689A42F8D800BF00BF1437BD4631
:1002100080BC704780B400AF00BFBD4680BC704753
:100220000D488546FFF7F6FF0C480D490D4A00239F
:1002300002E0D458C4500433C4188C42F9D30A4A9B
:100240000A4C002301E013600432A242FBD300F009
:1002500011F8FFF78DFFFEE700500020000000209E
:1002600014000020DC0200081400002030000020F0
:10027000FEE7000070B500260C4D0D4C641BA41069
:10028000A64209D100F01AF800260A4D0A4C641B58
:10029000A410A64205D170BD55F8043B984701361D
:1002A000EEE755F8043B98470136F2E7D402000820
:1002B000D4020008D4020008D8020008F8B500BF34
:1002C000F8BC08BC9E467047F8B500BFF8BC08BC37
:0402D0009E4670478F
:0402D40055010008C8
:0402D80031010008E8
:1002DC003F0006005B004F0066006D007D000700CC
:0402EC007F006F0020
:0400000508000221CC
:00000001FF
