:020000040800F2
:10000000005000203D0200088D0200088D0200080B
:100010008D0200088D0200088D020008000000001B
:100020000000000000000000000000008D02000839
:100030008D020008000000008D0200088D020008FB
:100040008D0200088D0200088D0200088D02000854
:100050008D0200088D0200088D0200088D02000844
:100060008D0200088D0200088D0200088D02000834
:100070008D0200088D0200088D0200088D02000824
:100080008D0200088D0200088D0200088D02000814
:100090008D0200088D0200088D0200088D02000804
:1000A0008D0200088D0200088D0200088D020008F4
:1000B0008D0200088D0200088D0200088D020008E4
:1000C0008D0200088D0200088D0200088D020008D4
:1000D0008D0200088D0200088D0200088D020008C4
:1000E0008D0200088D020008000000008D0200084B
:1000F0008D0200088D0200088D0200088D020008A4
:100100008D0200088D0200088D0200088D02000893
:100110008D0200088D0200088D0200088D02000883
:100120008D0200088D0200088D0200088D02000873
:1001300010B5054C237833B9044B13B10448AFF321
:1001400000800123237010BD00000020000000008B
:10015000D802000808B5034B1BB103490348AFF3AD
:10016000008008BD0000000004000020D802000844
:1001700080B582B000AF022000F044F8032000F008
:1001800041F81D4B1B681C4A43F4887313601A4BDB
:100190001B68194A23F44C631360184B1B68174AF9
:1001A00043F488731360154B1B68144A23F44C63A3
:1001B0001360114B06221A61104B06221A610023AC
:1001C0007B6002E07B6801337B607B680C4A934272
:1001D000F8DD094B4FF4C0221A61084B4FF4C022DE
:1001E0001A6100233B6002E03B6801333B603B68DF
:1001F000034A9342F8DDDCE700080140000C0140AF
:1002000020A1070080B483B000AF0346FB71074B09
:100210009B69FA79012101FA02F21146034A0B4364
:10022000936100BF0C37BD4680BC70470010024090
:1002300080B400AF00BFBD4680BC70470D48854606
:10024000FFF7F6FF0C480D490D4A002302E0D45891
:10025000C4500433C4188C42F9D30A4A0A4C002310
:1002600001E013600432A242FBD300F011F8FFF763
:100270007FFFFEE70050002000000020000000206B
:10028000F8020008000000201C000020FEE700002B
:1002900070B500260C4D0D4C641BA410A64209D16C
:1002A00000F01AF800260A4D0A4C641BA410A6425E
:1002B00005D170BD55F8043B98470136EEE755F877
:1002C000043B98470136F2E7F0020008F00200080C
:1002D000F0020008F4020008F8B500BFF8BC08BC42
:1002E0009E467047F8B500BFF8BC08BC9E467047F4
:0402F00055010008AC
:0402F40031010008CC
:040000050800023DB0
:00000001FF
