:020000040800F2
:1000000000500020E90400083905000839050008FF
:10001000390500083905000839050008000000000E
:10002000000000000000000000000000390500088A
:1000300039050008000000003905000839050008EE
:100040003905000839050008390500083905000898
:100050003905000839050008390500083905000888
:100060003905000839050008390500083905000878
:100070003905000839050008390500083905000868
:100080003905000839050008390500083905000858
:100090003905000839050008390500083905000848
:1000A0003905000839050008390500083905000838
:1000B0003905000839050008390500083905000828
:1000C0003905000839050008390500083905000818
:1000D0003905000839050008390500083905000808
:1000E000390500083905000800000000390500083E
:1000F00039050008390500083905000839050008E8
:1001000039050008390500083905000839050008D7
:1001100039050008390500083905000839050008C7
:1001200039050008390500083905000839050008B7
:1001300010B5054C237833B9044B13B10448AFF321
:1001400000800123237010BD10000020000000007B
:100150008405000808B5034B1BB103490348AFF3FE
:10016000008008BD00000000140000208405000885
:1001700080B582B000AF00F0B1F900F04DF800F0AA
:100180004DF9302000F0FEF8302000F0FBF8302070
:1001900000F0F8F80C2000F0F5F80F2000F0F2F86D
:1001A0000E2000F0EFF8012000F0ECF8102000F035
:1001B000E9F80023FB80802000F0E4F800F056F915
:1001C00003467B717B7903F00203002B0CD0FB8884
:1001D000013BFB80102000F0D5F8FB88DBB2303308
:1001E000DBB2184600F092F87B7903F00103002B94
:1001F0000AD0FB880133FB80FB88DBB23033DBB2F3
:10020000184600F083F8D6E7FB88DBB23033DBB268
:10021000184600F07BF8CEE780B483B000AF384BCF
:100220009B69374A43F004039361364B5B68354A58
:1002300023F00F035360334B5B68324A43F00203F1
:100240005360304B5B682F4A23F0F00353602D4B13
:100250005B682C4A43F02003536000237B6045E039
:10026000294A7B6832F81330072B1DD8254B1B68B1
:1002700025497A6831F8122092000F2101FA02F222
:10028000D24311461F4A0B4013601E4B1B681E4988
:100290007A6831F812209200022101FA02F2114626
:1002A000184A0B4313601EE0164B5B6816497A68C8
:1002B00031F81220083A92000F2101FA02F2D243DB
:1002C0001146104A0B4053600E4B5B680E497A682A
:1002D00031F81220083A9200022101FA02F2114686
:1002E000084A0B4353607B6801337B607B68072BB4
:1002F000B6DD00BF00BF0C37BD4680BC704700BFF5
:1003000000100240000801400000002080B584B0C9
:1003100000AF0346FB71194B4FF480721A61002342
:10032000FB601EE0FA79FB6842FA03F303F0010375
:10033000002B0AD0124AFB6832F813301A46012308
:1003400003FA02F20D4B1A6108E00D4AFB6832F81D
:100350001330103301229A40084B1A61FB680133B5
:10036000FB60FB68072BDDDD00F044F8062000F0A1
:100370009DF800BF1037BD4680BD00BF000801409A
:100380000000002080B584B000AF0346FB71174B1E
:100390004FF080721A610023FB601EE0FA79FB685F
:1003A00042FA03F303F00103002B0AD0104AFB6862
:1003B00032F813301A46012303FA02F20B4B1A618A
:1003C00008E00B4AFB6832F81330103301229A40E0
:1003D000064B1A61FB680133FB60FB68072BDDDD10
:1003E00000F008F800BF1037BD4680BD000801408E
:1003F0000000002080B500AF074B4FF400721A6177
:10040000012000F053F8044B4FF000721A610120F4
:1004100000F04CF800BF80BD0008014080B400AF80
:10042000104B9B690F4A43F0080393610E4B1B6806
:100430000D4A23F00F0313600B4B1B680A4A43F06D
:1004400008031360084B1B68074A23F0F00313608E
:10045000054B1B68044A43F08003136000BFBD4690
:1004600080BC704700100240000C014080B483B093
:1004700000AF0D4B9B689B08DBB203F00103FB71DF
:10048000094B9B685B08DBB203F00103BB71FB798E
:100490005B005AB297F9063013435BB2DBB21846E1
:1004A0000C37BD4680BC7047000C014080B485B05D
:1004B00000AF78600023FB6002E0FB680133FB6063
:1004C0007B684FF4FA5203FB02F2FB689A42F4D8BD
:1004D00000BF00BF1437BD4680BC704780B400AF7A
:1004E00000BFBD4680BC70470D488546FFF7F6FF4C
:1004F0000C480D490D4A002302E0D458C45004337F
:10050000C4188C42F9D30A4A0A4C002301E0136054
:100510000432A242FBD300F011F8FFF729FEFEE7F8
:10052000005000200000002010000020A40500085A
:10053000100000202C000020FEE7000070B500260F
:100540000C4D0D4C641BA410A64209D100F01AF802
:1005500000260A4D0A4C641BA410A64205D170BDAA
:1005600055F8043B98470136EEE755F8043B9847A9
:100570000136F2E79C0500089C0500089C05000870
:10058000A0050008F8B500BFF8BC08BC9E4670473F
:0C059000F8B500BFF8BC08BC9E467047E0
:04059C0055010008FD
:0405A000310100081D
:1005A400000001000200030004000500060007002B
:04000005080004E902
:00000001FF
